

Microchip MPLAB XC8 Assembler V2.20 build 20200408173844 
                                                                                               Fri Dec 04 18:53:48 2020

Microchip MPLAB XC8 C Compiler v2.20 (Free license) build 20200408173844 Og1 
     1                           	processor	16F18313
     2                           	pagewidth 120
     3                           	opt	flic
     4                           	psect	nvCOMMON,global,class=COMMON,space=1,delta=1,noexec
     5                           	psect	cinit,global,class=CODE,merge=1,delta=2
     6                           	psect	bssCOMMON,global,class=COMMON,space=1,delta=1,noexec
     7                           	psect	cstackCOMMON,global,class=COMMON,space=1,delta=1,noexec
     8                           	psect	maintext,global,class=CODE,merge=1,split=1,delta=2
     9                           	psect	config,global,abs,ovrld,class=CONFIG,space=4,delta=2,noexec
    10                           	dabs	1,0x7E,2
    11  0000                     
    12                           ; Version 2.20
    13                           ; Generated 30/04/2020 GMT
    14                           ; 
    15                           ; Copyright © 2020, Microchip Technology Inc. and its subsidiaries ("Microchip")
    16                           ; All rights reserved.
    17                           ; 
    18                           ; This software is developed by Microchip Technology Inc. and its subsidiaries ("Microch
      +                          ip").
    19                           ; 
    20                           ; Redistribution and use in source and binary forms, with or without modification, are
    21                           ; permitted provided that the following conditions are met:
    22                           ; 
    23                           ;     1. Redistributions of source code must retain the above copyright notice, this lis
      +                          t of
    24                           ;        conditions and the following disclaimer.
    25                           ; 
    26                           ;     2. Redistributions in binary form must reproduce the above copyright notice, this 
      +                          list
    27                           ;        of conditions and the following disclaimer in the documentation and/or other
    28                           ;        materials provided with the distribution.
    29                           ; 
    30                           ;     3. Microchip's name may not be used to endorse or promote products derived from th
      +                          is
    31                           ;        software without specific prior written permission.
    32                           ; 
    33                           ; THIS SOFTWARE IS PROVIDED BY MICROCHIP "AS IS" AND ANY EXPRESS OR IMPLIED WARRANTIES,
    34                           ; INCLUDING, BUT NOT LIMITED TO, THE IMPLIED WARRANTIES OF MERCHANTABILITY AND FITNESS F
      +                          OR
    35                           ; PURPOSE ARE DISCLAIMED.  IN NO EVENT SHALL MICROCHIP BE LIABLE FOR ANY DIRECT, INDIREC
      +                          T,
    36                           ; INCIDENTAL, SPECIAL, EXEMPLARY, OR CONSEQUENTIAL DAMAGES (INCLUDING BUT NOT LIMITED TO
    37                           ; PROCUREMENT OF SUBSTITUTE GOODS OR SERVICES; LOSS OF USE, DATA OR PROFITS; OR BUSINESS
    38                           ; INTERRUPTION) HOWSOEVER CAUSED AND ON ANY THEORY OF LIABILITY, WHETHER IN CONTRACT, ST
      +                          RICT
    39                           ; LIABILITY, OR TORT (INCLUDING NEGLIGENCE OR OTHERWISE) ARISING IN ANY WAY OUT OF THE U
      +                          SE OF
    40                           ; THIS SOFTWARE, EVEN IF ADVISED OF THE POSSIBILITY OF SUCH DAMAGE.
    41                           ; 
    42                           ; 
    43                           ; Code-generator required, PIC16F18313 Definitions
    44                           ; 
    45                           ; SFR Addresses
    46  0000                     	;# 
    47  0001                     	;# 
    48  0002                     	;# 
    49  0003                     	;# 
    50  0004                     	;# 
    51  0005                     	;# 
    52  0006                     	;# 
    53  0007                     	;# 
    54  0008                     	;# 
    55  0009                     	;# 
    56  000A                     	;# 
    57  000B                     	;# 
    58  000C                     	;# 
    59  0010                     	;# 
    60  0011                     	;# 
    61  0012                     	;# 
    62  0013                     	;# 
    63  0014                     	;# 
    64  0015                     	;# 
    65  0015                     	;# 
    66  0016                     	;# 
    67  0016                     	;# 
    68  0017                     	;# 
    69  0018                     	;# 
    70  0019                     	;# 
    71  0019                     	;# 
    72  001A                     	;# 
    73  001B                     	;# 
    74  001C                     	;# 
    75  001D                     	;# 
    76  001E                     	;# 
    77  001F                     	;# 
    78  008C                     	;# 
    79  0090                     	;# 
    80  0091                     	;# 
    81  0092                     	;# 
    82  0093                     	;# 
    83  0094                     	;# 
    84  0097                     	;# 
    85  009B                     	;# 
    86  009B                     	;# 
    87  009C                     	;# 
    88  009D                     	;# 
    89  009E                     	;# 
    90  009F                     	;# 
    91  010C                     	;# 
    92  0111                     	;# 
    93  0112                     	;# 
    94  0115                     	;# 
    95  0116                     	;# 
    96  0117                     	;# 
    97  0118                     	;# 
    98  0119                     	;# 
    99  018C                     	;# 
   100  0197                     	;# 
   101  0199                     	;# 
   102  0199                     	;# 
   103  0199                     	;# 
   104  019A                     	;# 
   105  019A                     	;# 
   106  019A                     	;# 
   107  019B                     	;# 
   108  019B                     	;# 
   109  019B                     	;# 
   110  019B                     	;# 
   111  019B                     	;# 
   112  019C                     	;# 
   113  019C                     	;# 
   114  019C                     	;# 
   115  019D                     	;# 
   116  019D                     	;# 
   117  019D                     	;# 
   118  019E                     	;# 
   119  019E                     	;# 
   120  019E                     	;# 
   121  019F                     	;# 
   122  019F                     	;# 
   123  019F                     	;# 
   124  019F                     	;# 
   125  019F                     	;# 
   126  020C                     	;# 
   127  0211                     	;# 
   128  0211                     	;# 
   129  0212                     	;# 
   130  0212                     	;# 
   131  0213                     	;# 
   132  0213                     	;# 
   133  0214                     	;# 
   134  0214                     	;# 
   135  0215                     	;# 
   136  0215                     	;# 
   137  0215                     	;# 
   138  0215                     	;# 
   139  0216                     	;# 
   140  0216                     	;# 
   141  0217                     	;# 
   142  0217                     	;# 
   143  028C                     	;# 
   144  0291                     	;# 
   145  0291                     	;# 
   146  0292                     	;# 
   147  0293                     	;# 
   148  0294                     	;# 
   149  0295                     	;# 
   150  0295                     	;# 
   151  0296                     	;# 
   152  0297                     	;# 
   153  0298                     	;# 
   154  030C                     	;# 
   155  038C                     	;# 
   156  0391                     	;# 
   157  0392                     	;# 
   158  0393                     	;# 
   159  039A                     	;# 
   160  039C                     	;# 
   161  039D                     	;# 
   162  039E                     	;# 
   163  039F                     	;# 
   164  0498                     	;# 
   165  0498                     	;# 
   166  0499                     	;# 
   167  049A                     	;# 
   168  049B                     	;# 
   169  049B                     	;# 
   170  049C                     	;# 
   171  049D                     	;# 
   172  049E                     	;# 
   173  049F                     	;# 
   174  0617                     	;# 
   175  0618                     	;# 
   176  0619                     	;# 
   177  0619                     	;# 
   178  061A                     	;# 
   179  061B                     	;# 
   180  061C                     	;# 
   181  061C                     	;# 
   182  0691                     	;# 
   183  0692                     	;# 
   184  0693                     	;# 
   185  0694                     	;# 
   186  0695                     	;# 
   187  0696                     	;# 
   188  0697                     	;# 
   189  0698                     	;# 
   190  0699                     	;# 
   191  0891                     	;# 
   192  0891                     	;# 
   193  0891                     	;# 
   194  0891                     	;# 
   195  0891                     	;# 
   196  0891                     	;# 
   197  0892                     	;# 
   198  0892                     	;# 
   199  0892                     	;# 
   200  0893                     	;# 
   201  0893                     	;# 
   202  0893                     	;# 
   203  0893                     	;# 
   204  0893                     	;# 
   205  0893                     	;# 
   206  0894                     	;# 
   207  0894                     	;# 
   208  0894                     	;# 
   209  0895                     	;# 
   210  0895                     	;# 
   211  0895                     	;# 
   212  0896                     	;# 
   213  0896                     	;# 
   214  0896                     	;# 
   215  089B                     	;# 
   216  0911                     	;# 
   217  0912                     	;# 
   218  0913                     	;# 
   219  0914                     	;# 
   220  0915                     	;# 
   221  0916                     	;# 
   222  0918                     	;# 
   223  0919                     	;# 
   224  091A                     	;# 
   225  091B                     	;# 
   226  091C                     	;# 
   227  091D                     	;# 
   228  091E                     	;# 
   229  091F                     	;# 
   230  0E0F                     	;# 
   231  0E10                     	;# 
   232  0E11                     	;# 
   233  0E12                     	;# 
   234  0E13                     	;# 
   235  0E14                     	;# 
   236  0E15                     	;# 
   237  0E18                     	;# 
   238  0E1A                     	;# 
   239  0E1B                     	;# 
   240  0E1C                     	;# 
   241  0E20                     	;# 
   242  0E21                     	;# 
   243  0E22                     	;# 
   244  0E24                     	;# 
   245  0E25                     	;# 
   246  0E28                     	;# 
   247  0E29                     	;# 
   248  0E2A                     	;# 
   249  0E2B                     	;# 
   250  0E90                     	;# 
   251  0E91                     	;# 
   252  0E92                     	;# 
   253  0E94                     	;# 
   254  0E95                     	;# 
   255  0F0F                     	;# 
   256  0F10                     	;# 
   257  0F11                     	;# 
   258  0F12                     	;# 
   259  0F13                     	;# 
   260  0F14                     	;# 
   261  0F15                     	;# 
   262  0F16                     	;# 
   263  0F17                     	;# 
   264  0F18                     	;# 
   265  0F19                     	;# 
   266  0F1A                     	;# 
   267  0F1B                     	;# 
   268  0F1C                     	;# 
   269  0F1D                     	;# 
   270  0F1E                     	;# 
   271  0F1F                     	;# 
   272  0F20                     	;# 
   273  0F21                     	;# 
   274  0F22                     	;# 
   275  0F23                     	;# 
   276  0FE4                     	;# 
   277  0FE5                     	;# 
   278  0FE6                     	;# 
   279  0FE7                     	;# 
   280  0FE8                     	;# 
   281  0FE9                     	;# 
   282  0FEA                     	;# 
   283  0FEB                     	;# 
   284  0FED                     	;# 
   285  0FEE                     	;# 
   286  0FEF                     	;# 
   287  0000                     	;# 
   288  0001                     	;# 
   289  0002                     	;# 
   290  0003                     	;# 
   291  0004                     	;# 
   292  0005                     	;# 
   293  0006                     	;# 
   294  0007                     	;# 
   295  0008                     	;# 
   296  0009                     	;# 
   297  000A                     	;# 
   298  000B                     	;# 
   299  000C                     	;# 
   300  0010                     	;# 
   301  0011                     	;# 
   302  0012                     	;# 
   303  0013                     	;# 
   304  0014                     	;# 
   305  0015                     	;# 
   306  0015                     	;# 
   307  0016                     	;# 
   308  0016                     	;# 
   309  0017                     	;# 
   310  0018                     	;# 
   311  0019                     	;# 
   312  0019                     	;# 
   313  001A                     	;# 
   314  001B                     	;# 
   315  001C                     	;# 
   316  001D                     	;# 
   317  001E                     	;# 
   318  001F                     	;# 
   319  008C                     	;# 
   320  0090                     	;# 
   321  0091                     	;# 
   322  0092                     	;# 
   323  0093                     	;# 
   324  0094                     	;# 
   325  0097                     	;# 
   326  009B                     	;# 
   327  009B                     	;# 
   328  009C                     	;# 
   329  009D                     	;# 
   330  009E                     	;# 
   331  009F                     	;# 
   332  010C                     	;# 
   333  0111                     	;# 
   334  0112                     	;# 
   335  0115                     	;# 
   336  0116                     	;# 
   337  0117                     	;# 
   338  0118                     	;# 
   339  0119                     	;# 
   340  018C                     	;# 
   341  0197                     	;# 
   342  0199                     	;# 
   343  0199                     	;# 
   344  0199                     	;# 
   345  019A                     	;# 
   346  019A                     	;# 
   347  019A                     	;# 
   348  019B                     	;# 
   349  019B                     	;# 
   350  019B                     	;# 
   351  019B                     	;# 
   352  019B                     	;# 
   353  019C                     	;# 
   354  019C                     	;# 
   355  019C                     	;# 
   356  019D                     	;# 
   357  019D                     	;# 
   358  019D                     	;# 
   359  019E                     	;# 
   360  019E                     	;# 
   361  019E                     	;# 
   362  019F                     	;# 
   363  019F                     	;# 
   364  019F                     	;# 
   365  019F                     	;# 
   366  019F                     	;# 
   367  020C                     	;# 
   368  0211                     	;# 
   369  0211                     	;# 
   370  0212                     	;# 
   371  0212                     	;# 
   372  0213                     	;# 
   373  0213                     	;# 
   374  0214                     	;# 
   375  0214                     	;# 
   376  0215                     	;# 
   377  0215                     	;# 
   378  0215                     	;# 
   379  0215                     	;# 
   380  0216                     	;# 
   381  0216                     	;# 
   382  0217                     	;# 
   383  0217                     	;# 
   384  028C                     	;# 
   385  0291                     	;# 
   386  0291                     	;# 
   387  0292                     	;# 
   388  0293                     	;# 
   389  0294                     	;# 
   390  0295                     	;# 
   391  0295                     	;# 
   392  0296                     	;# 
   393  0297                     	;# 
   394  0298                     	;# 
   395  030C                     	;# 
   396  038C                     	;# 
   397  0391                     	;# 
   398  0392                     	;# 
   399  0393                     	;# 
   400  039A                     	;# 
   401  039C                     	;# 
   402  039D                     	;# 
   403  039E                     	;# 
   404  039F                     	;# 
   405  0498                     	;# 
   406  0498                     	;# 
   407  0499                     	;# 
   408  049A                     	;# 
   409  049B                     	;# 
   410  049B                     	;# 
   411  049C                     	;# 
   412  049D                     	;# 
   413  049E                     	;# 
   414  049F                     	;# 
   415  0617                     	;# 
   416  0618                     	;# 
   417  0619                     	;# 
   418  0619                     	;# 
   419  061A                     	;# 
   420  061B                     	;# 
   421  061C                     	;# 
   422  061C                     	;# 
   423  0691                     	;# 
   424  0692                     	;# 
   425  0693                     	;# 
   426  0694                     	;# 
   427  0695                     	;# 
   428  0696                     	;# 
   429  0697                     	;# 
   430  0698                     	;# 
   431  0699                     	;# 
   432  0891                     	;# 
   433  0891                     	;# 
   434  0891                     	;# 
   435  0891                     	;# 
   436  0891                     	;# 
   437  0891                     	;# 
   438  0892                     	;# 
   439  0892                     	;# 
   440  0892                     	;# 
   441  0893                     	;# 
   442  0893                     	;# 
   443  0893                     	;# 
   444  0893                     	;# 
   445  0893                     	;# 
   446  0893                     	;# 
   447  0894                     	;# 
   448  0894                     	;# 
   449  0894                     	;# 
   450  0895                     	;# 
   451  0895                     	;# 
   452  0895                     	;# 
   453  0896                     	;# 
   454  0896                     	;# 
   455  0896                     	;# 
   456  089B                     	;# 
   457  0911                     	;# 
   458  0912                     	;# 
   459  0913                     	;# 
   460  0914                     	;# 
   461  0915                     	;# 
   462  0916                     	;# 
   463  0918                     	;# 
   464  0919                     	;# 
   465  091A                     	;# 
   466  091B                     	;# 
   467  091C                     	;# 
   468  091D                     	;# 
   469  091E                     	;# 
   470  091F                     	;# 
   471  0E0F                     	;# 
   472  0E10                     	;# 
   473  0E11                     	;# 
   474  0E12                     	;# 
   475  0E13                     	;# 
   476  0E14                     	;# 
   477  0E15                     	;# 
   478  0E18                     	;# 
   479  0E1A                     	;# 
   480  0E1B                     	;# 
   481  0E1C                     	;# 
   482  0E20                     	;# 
   483  0E21                     	;# 
   484  0E22                     	;# 
   485  0E24                     	;# 
   486  0E25                     	;# 
   487  0E28                     	;# 
   488  0E29                     	;# 
   489  0E2A                     	;# 
   490  0E2B                     	;# 
   491  0E90                     	;# 
   492  0E91                     	;# 
   493  0E92                     	;# 
   494  0E94                     	;# 
   495  0E95                     	;# 
   496  0F0F                     	;# 
   497  0F10                     	;# 
   498  0F11                     	;# 
   499  0F12                     	;# 
   500  0F13                     	;# 
   501  0F14                     	;# 
   502  0F15                     	;# 
   503  0F16                     	;# 
   504  0F17                     	;# 
   505  0F18                     	;# 
   506  0F19                     	;# 
   507  0F1A                     	;# 
   508  0F1B                     	;# 
   509  0F1C                     	;# 
   510  0F1D                     	;# 
   511  0F1E                     	;# 
   512  0F1F                     	;# 
   513  0F20                     	;# 
   514  0F21                     	;# 
   515  0F22                     	;# 
   516  0F23                     	;# 
   517  0FE4                     	;# 
   518  0FE5                     	;# 
   519  0FE6                     	;# 
   520  0FE7                     	;# 
   521  0FE8                     	;# 
   522  0FE9                     	;# 
   523  0FEA                     	;# 
   524  0FEB                     	;# 
   525  0FED                     	;# 
   526  0FEE                     	;# 
   527  0FEF                     	;# 
   528                           
   529                           	psect	nvCOMMON
   530  0075                     __pnvCOMMON:
   531  0075                     _rpt:
   532  0075                     	ds	1
   533  008C                     _TRISA	set	140
   534  010C                     _LATA	set	268
   535  018C                     _ANSELA	set	396
   536  020C                     _WPUA	set	524
   537  028C                     _ODCONA	set	652
   538  030C                     _SLRCONA	set	780
   539  038C                     _INLVLA	set	908
   540  0919                     _OSCCON1	set	2329
   541  091B                     _OSCCON3	set	2331
   542                           
   543                           	psect	cinit
   544  07F9                     start_initialization:	
   545                           ; #config settings
   546                           
   547  07F9                     __initialization:
   548                           
   549                           ; Clear objects allocated to COMMON
   550  07F9  01F0               	clrf	__pbssCOMMON& (0+127)
   551  07FA  01F1               	clrf	(__pbssCOMMON+1)& (0+127)
   552  07FB  01F2               	clrf	(__pbssCOMMON+2)& (0+127)
   553  07FC  01F3               	clrf	(__pbssCOMMON+3)& (0+127)
   554  07FD  01F4               	clrf	(__pbssCOMMON+4)& (0+127)
   555  07FE                     end_of_initialization:	
   556                           ;End of C runtime variable initialization code
   557                           
   558  07FE                     __end_of__initialization:
   559  07FE  0020               	movlb	0
   560  07FF  2F88               	ljmp	_main	;jump to C main() function
   561                           
   562                           	psect	bssCOMMON
   563  0070                     __pbssCOMMON:
   564  0070                     _pattern:
   565  0070                     	ds	4
   566  0074                     _pos:
   567  0074                     	ds	1
   568                           
   569                           	psect	cstackCOMMON
   570  0076                     __pcstackCOMMON:
   571  0076                     ??_main:
   572  0076                     ?_main:	
   573                           ; 1 bytes @ 0x0
   574                           
   575                           
   576                           ; 2 bytes @ 0x0
   577  0076                     	ds	1
   578                           
   579                           	psect	maintext
   580  0788                     __pmaintext:	
   581 ;;
   582 ;;Main: autosize = 0, tempsize = 1, incstack = 0, save=0
   583 ;;
   584 ;; *************** function _main *****************
   585 ;; Defined at:
   586 ;;		line 68 in file "main.c"
   587 ;; Parameters:    Size  Location     Type
   588 ;;		None
   589 ;; Auto vars:     Size  Location     Type
   590 ;;		None
   591 ;; Return value:  Size  Location     Type
   592 ;;                  2   30[None  ] int 
   593 ;; Registers used:
   594 ;;		wreg, status,2, status,0
   595 ;; Tracked objects:
   596 ;;		On entry : B1F/0
   597 ;;		On exit  : 0/0
   598 ;;		Unchanged: 0/0
   599 ;; Data sizes:     COMMON   BANK0   BANK1   BANK2
   600 ;;      Params:         0       0       0       0
   601 ;;      Locals:         0       0       0       0
   602 ;;      Temps:          1       0       0       0
   603 ;;      Totals:         1       0       0       0
   604 ;;Total ram usage:        1 bytes
   605 ;; This function calls:
   606 ;;		Nothing
   607 ;; This function is called by:
   608 ;;		Startup code after reset
   609 ;; This function uses a non-reentrant model
   610 ;;
   611                           
   612                           
   613                           ;psect for function _main
   614  0788                     _main:
   615  0788                     l649:	
   616                           ;incstack = 0
   617                           ; Regs used in _main: [wreg+status,2+status,0]
   618                           
   619                           
   620                           ;main.c: 69:     OSCCON3 = 0b00000000;
   621  0788  0032               	movlb	18	; select bank18
   622  0789  019B               	clrf	27	;volatile
   623  078A                     l651:
   624                           
   625                           ;main.c: 70:     OSCCON1 = 0b00000011;
   626  078A  3003               	movlw	3
   627  078B  0099               	movwf	25	;volatile
   628  078C                     l653:
   629                           
   630                           ;main.c: 72:     ANSELA = 0b00000000;
   631  078C  0023               	movlb	3	; select bank3
   632  078D  018C               	clrf	12	;volatile
   633  078E                     l655:
   634                           
   635                           ;main.c: 73:     TRISA = 0b00000000;
   636  078E  0021               	movlb	1	; select bank1
   637  078F  018C               	clrf	12	;volatile
   638  0790                     l657:
   639                           
   640                           ;main.c: 74:     WPUA = 0b00000000;
   641  0790  0024               	movlb	4	; select bank4
   642  0791  018C               	clrf	12	;volatile
   643  0792                     l659:
   644                           
   645                           ;main.c: 75:     INLVLA = 0b00000000;
   646  0792  0027               	movlb	7	; select bank7
   647  0793  018C               	clrf	12	;volatile
   648  0794                     l661:
   649                           
   650                           ;main.c: 76:     ODCONA = 0b00000000;
   651  0794  0025               	movlb	5	; select bank5
   652  0795  018C               	clrf	12	;volatile
   653  0796                     l663:
   654                           
   655                           ;main.c: 77:     SLRCONA = 0b00000000;
   656  0796  0026               	movlb	6	; select bank6
   657  0797  018C               	clrf	12	;volatile
   658  0798                     l665:
   659                           
   660                           ;main.c: 78:     LATA = 0b00000000;
   661  0798  0022               	movlb	2	; select bank2
   662  0799  018C               	clrf	12	;volatile
   663                           
   664                           ;main.c: 81:     for (rpt = 20; rpt; --rpt) {
   665  079A  3014               	movlw	20
   666  079B  00F6               	movwf	??_main
   667  079C  0876               	movf	??_main,w
   668  079D  00F5               	movwf	_rpt
   669  079E  2FF3               	goto	l695
   670  079F                     l667:
   671                           
   672                           ;main.c: 83:         pattern = 0x9d3b85d3UL;
   673  079F  309D               	movlw	157
   674  07A0  00F3               	movwf	_pattern+3
   675  07A1  303B               	movlw	59
   676  07A2  00F2               	movwf	_pattern+2
   677  07A3  3085               	movlw	133
   678  07A4  00F1               	movwf	_pattern+1
   679  07A5  30D3               	movlw	211
   680  07A6  00F0               	movwf	_pattern
   681                           
   682                           ;main.c: 85:         for (pos = 32; pos; --pos) {
   683  07A7  3020               	movlw	32
   684  07A8  00F6               	movwf	??_main
   685  07A9  0876               	movf	??_main,w
   686  07AA  00F4               	movwf	_pos
   687  07AB  2FDB               	goto	l685
   688  07AC                     l34:
   689                           
   690                           ;main.c: 86:             if (pattern & (1UL << 31)) {
   691  07AC  1FF3               	btfss	_pattern+3,7
   692  07AD  2FAF               	goto	u11
   693  07AE  2FB0               	goto	u10
   694  07AF                     u11:
   695  07AF  2FC2               	goto	l675
   696  07B0                     u10:
   697  07B0                     l669:
   698                           
   699                           ;main.c: 87:                 LATA = 0b00100000;
   700  07B0  3020               	movlw	32
   701  07B1  0022               	movlb	2	; select bank2
   702  07B2  008C               	movwf	12	;volatile
   703                           
   704                           ;main.c: 88:                 _delay((unsigned long)((1560)*(4000000/4000000.0)));
   705  07B3  30DE               	movlw	222
   706  07B4                     u57:
   707  07B4  3200               	nop2
   708  07B5  3200               	nop2
   709  07B6  0B89               	decfsz	9,f
   710  07B7  2FB4               	goto	u57
   711  07B8  3200               	nop2
   712  07B9  3200               	nop2
   713  07BA  3200               	nop2
   714  07BB                     l671:
   715                           
   716                           ;main.c: 89:                 LATA = 0b00000000;
   717  07BB  0022               	movlb	2	; select bank2
   718  07BC  018C               	clrf	12	;volatile
   719  07BD                     l673:
   720                           
   721                           ;main.c: 90:                 _delay((unsigned long)((512)*(4000000/4000000.0)));
   722  07BD  30AA               	movlw	170
   723  07BE                     u67:
   724  07BE  0B89               	decfsz	9,f
   725  07BF  2FBE               	goto	u67
   726  07C0  3200               	nop2
   727                           
   728                           ;main.c: 91:             } else {
   729  07C1  2FD2               	goto	l681
   730  07C2                     l675:
   731                           
   732                           ;main.c: 92:                 LATA = 0b00100000;
   733  07C2  3020               	movlw	32
   734  07C3  0022               	movlb	2	; select bank2
   735  07C4  008C               	movwf	12	;volatile
   736                           
   737                           ;main.c: 93:                 _delay((unsigned long)((524)*(4000000/4000000.0)));
   738  07C5  30AE               	movlw	174
   739  07C6                     u77:
   740  07C6  0B89               	decfsz	9,f
   741  07C7  2FC6               	goto	u77
   742  07C8  3200               	nop2
   743  07C9                     l677:
   744                           
   745                           ;main.c: 94:                 LATA = 0b00000000;
   746  07C9  0022               	movlb	2	; select bank2
   747  07CA  018C               	clrf	12	;volatile
   748  07CB                     l679:
   749                           
   750                           ;main.c: 95:                 _delay((unsigned long)((1544)*(4000000/4000000.0)));
   751  07CB  30DC               	movlw	220
   752  07CC                     u87:
   753  07CC  3200               	nop2
   754  07CD  3200               	nop2
   755  07CE  0B89               	decfsz	9,f
   756  07CF  2FCC               	goto	u87
   757  07D0  3200               	nop2
   758  07D1  3200               	nop2
   759  07D2                     l681:
   760                           
   761                           ;main.c: 98:             pattern <<= 1;
   762  07D2  3001               	movlw	1
   763  07D3                     u25:
   764  07D3  35F0               	lslf	_pattern,f
   765  07D4  0DF1               	rlf	_pattern+1,f
   766  07D5  0DF2               	rlf	_pattern+2,f
   767  07D6  0DF3               	rlf	_pattern+3,f
   768  07D7  0B89               	decfsz	9,f
   769  07D8  2FD3               	goto	u25
   770  07D9                     l683:
   771                           
   772                           ;main.c: 99:         }
   773  07D9  3001               	movlw	1
   774  07DA  02F4               	subwf	_pos,f
   775  07DB                     l685:
   776  07DB  0874               	movf	_pos,w
   777  07DC  1D03               	btfss	3,2
   778  07DD  2FDF               	goto	u31
   779  07DE  2FE0               	goto	u30
   780  07DF                     u31:
   781  07DF  2FAC               	goto	l34
   782  07E0                     u30:
   783  07E0                     l687:
   784                           
   785                           ;main.c: 102:         LATA = 0b00100000;
   786  07E0  3020               	movlw	32
   787  07E1  0022               	movlb	2	; select bank2
   788  07E2  008C               	movwf	12	;volatile
   789                           
   790                           ;main.c: 103:         _delay((unsigned long)((524)*(4000000/4000000.0)));
   791  07E3  30AE               	movlw	174
   792  07E4                     u97:
   793  07E4  0B89               	decfsz	9,f
   794  07E5  2FE4               	goto	u97
   795  07E6  3200               	nop2
   796  07E7                     l689:
   797                           
   798                           ;main.c: 104:         LATA = 0b00000000;
   799  07E7  0022               	movlb	2	; select bank2
   800  07E8  018C               	clrf	12	;volatile
   801  07E9                     l691:
   802                           
   803                           ;main.c: 105:         _delay((unsigned long)((7244)*(4000000/4000000.0)));
   804  07E9  300A               	movlw	10
   805  07EA  00F6               	movwf	??_main
   806  07EB  3067               	movlw	103
   807  07EC                     u107:
   808  07EC  0B89               	decfsz	9,f
   809  07ED  2FEC               	goto	u107
   810  07EE  0BF6               	decfsz	??_main,f
   811  07EF  2FEC               	goto	u107
   812  07F0  0000               	nop
   813  07F1                     l693:
   814                           
   815                           ;main.c: 106:     }
   816  07F1  3001               	movlw	1
   817  07F2  02F5               	subwf	_rpt,f
   818  07F3                     l695:
   819  07F3  0875               	movf	_rpt,w
   820  07F4  1D03               	btfss	3,2
   821  07F5  2FF7               	goto	u41
   822  07F6  2FF8               	goto	u40
   823  07F7                     u41:
   824  07F7  2F9F               	goto	l667
   825  07F8                     u40:
   826  07F8                     l39:
   827  07F8  2801               	ljmp	start
   828  07F9                     __end_of_main:
   829  007E                     btemp	set	126	;btemp
   830  007E                     wtemp0	set	126
   831                           
   832                           	psect	config
   833                           
   834                           ;Config register CONFIG1 @ 0x8007
   835                           ;	FEXTOSC External Oscillator mode Selection bits
   836                           ;	FEXTOSC = OFF, Oscillator not enabled
   837                           ;	Power-up default value for COSC bits
   838                           ;	RSTOSC = HFINT32, HFINTOSC with 2x PLL (32MHz)
   839                           ;	Clock Out Enable bit
   840                           ;	CLKOUTEN = OFF, CLKOUT function is disabled; I/O or oscillator function on OSC2
   841                           ;	Clock Switch Enable bit
   842                           ;	CSWEN = ON, Writing to NOSC and NDIV is allowed
   843                           ;	Fail-Safe Clock Monitor Enable
   844                           ;	FCMEN = ON, Fail-Safe Clock Monitor is enabled
   845  8007                     	org	32775
   846  8007  3F8C               	dw	16268
   847                           
   848                           ;Config register CONFIG2 @ 0x8008
   849                           ;	Master Clear Enable bit
   850                           ;	MCLRE = ON, MCLR/VPP pin function is MCLR; Weak pull-up enabled
   851                           ;	Power-up Timer Enable bit
   852                           ;	PWRTE = ON, PWRT enabled
   853                           ;	Watchdog Timer Enable bits
   854                           ;	WDTE = OFF, WDT disabled; SWDTEN is ignored
   855                           ;	Low-power BOR enable bit
   856                           ;	LPBOREN = OFF, ULPBOR disabled
   857                           ;	Brown-out Reset Enable bits
   858                           ;	BOREN = ON, Brown-out Reset enabled, SBOREN bit ignored
   859                           ;	Brown-out Reset Voltage selection bit
   860                           ;	BORV = HIGH, Brown-out voltage (Vbor) set to 2.7V
   861                           ;	PPSLOCK bit One-Way Set Enable bit
   862                           ;	PPS1WAY = OFF, The PPSLOCK bit can be set and cleared repeatedly (subject to the unloc
      +                          k sequence)
   863                           ;	Stack Overflow/Underflow Reset Enable bit
   864                           ;	STVREN = ON, Stack Overflow or Underflow will cause a Reset
   865                           ;	Debugger enable bit
   866                           ;	DEBUG = OFF, Background debugger disabled
   867  8008                     	org	32776
   868  8008  35F1               	dw	13809
   869                           
   870                           ;Config register CONFIG3 @ 0x8009
   871                           ;	User NVM self-write protection bits
   872                           ;	WRT = OFF, Write protection off
   873                           ;	Low Voltage Programming Enable bit
   874                           ;	LVP = ON, Low voltage programming enabled. MCLR/VPP pin function is MCLR. MCLRE config
      +                          uration bit is ignored.
   875  8009                     	org	32777
   876  8009  3FFF               	dw	16383
   877                           
   878                           ;Config register CONFIG4 @ 0x800A
   879                           ;	User NVM Program Memory Code Protection bit
   880                           ;	CP = OFF, User NVM code protection disabled
   881                           ;	Data NVM Memory Code Protection bit
   882                           ;	CPD = OFF, Data NVM code protection disabled
   883  800A                     	org	32778
   884  800A  3FFF               	dw	16383

Data Sizes:
    Strings     0
    Constant    0
    Data        0
    BSS         5
    Persistent  33
    Stack       0

Auto Spaces:
    Space          Size  Autos    Used
    COMMON           14      1       7
    BANK0            80      0       0
    BANK1            80      0       0
    BANK2            80      0       0

Pointer List with Targets:

    None.

Critical Paths under _main in COMMON

    None.

Critical Paths under _main in BANK0

    None.

Critical Paths under _main in BANK1

    None.

Critical Paths under _main in BANK2

    None.

Call Graph Tables:

 ---------------------------------------------------------------------------------
 (Depth) Function   	        Calls       Base Space   Used Autos Params    Refs
 ---------------------------------------------------------------------------------
 (0) _main                                                 1     1      0       0
                                              0 COMMON     1     1      0
 ---------------------------------------------------------------------------------
 Estimated maximum stack depth 0
 ---------------------------------------------------------------------------------

 Call Graph Graphs:

 _main (ROOT)

 Address spaces:
Name               Size   Autos  Total    Cost      Usage
BIGRAM              F0      0       0       0        0.0%
EEDATA             100      0       0       0        0.0%
NULL                 0      0       0       0        0.0%
CODE                 0      0       0       0        0.0%
BITCOMMON            E      0       0       1        0.0%
BITSFR0              0      0       0       1        0.0%
SFR0                 0      0       0       1        0.0%
COMMON               E      1       7       2       50.0%
BITSFR1              0      0       0       2        0.0%
SFR1                 0      0       0       2        0.0%
BITSFR2              0      0       0       3        0.0%
SFR2                 0      0       0       3        0.0%
STACK                0      0       0       3        0.0%
BITSFR3              0      0       0       4        0.0%
SFR3                 0      0       0       4        0.0%
ABS                  0      0       7       4        0.0%
BITBANK0            50      0       0       5        0.0%
BITSFR4              0      0       0       5        0.0%
SFR4                 0      0       0       5        0.0%
BANK0               50      0       0       6        0.0%
BITSFR5              0      0       0       6        0.0%
SFR5                 0      0       0       6        0.0%
BITBANK1            50      0       0       7        0.0%
BITSFR6              0      0       0       7        0.0%
SFR6                 0      0       0       7        0.0%
BANK1               50      0       0       8        0.0%
BITSFR7              0      0       0       8        0.0%
SFR7                 0      0       0       8        0.0%
BITBANK2            50      0       0       9        0.0%
BITSFR8              0      0       0       9        0.0%
SFR8                 0      0       0       9        0.0%
BANK2               50      0       0      10        0.0%
BITSFR9              0      0       0      10        0.0%
SFR9                 0      0       0      10        0.0%
BITSFR10             0      0       0      11        0.0%
SFR10                0      0       0      11        0.0%
DATA                 0      0       7      11        0.0%
BITSFR11             0      0       0      12        0.0%
SFR11                0      0       0      12        0.0%
BITSFR12             0      0       0      13        0.0%
SFR12                0      0       0      13        0.0%
BITSFR13             0      0       0      14        0.0%
SFR13                0      0       0      14        0.0%
BITSFR14             0      0       0      15        0.0%
SFR14                0      0       0      15        0.0%
BITSFR15             0      0       0      16        0.0%
SFR15                0      0       0      16        0.0%
BITSFR16             0      0       0      17        0.0%
SFR16                0      0       0      17        0.0%
BITSFR17             0      0       0      18        0.0%
SFR17                0      0       0      18        0.0%
BITSFR18             0      0       0      19        0.0%
SFR18                0      0       0      19        0.0%
BITSFR19             0      0       0      20        0.0%
SFR19                0      0       0      20        0.0%
BITSFR20             0      0       0      21        0.0%
SFR20                0      0       0      21        0.0%
BITSFR21             0      0       0      22        0.0%
SFR21                0      0       0      22        0.0%
BITSFR22             0      0       0      23        0.0%
SFR22                0      0       0      23        0.0%
BITSFR23             0      0       0      24        0.0%
SFR23                0      0       0      24        0.0%
BITSFR24             0      0       0      25        0.0%
SFR24                0      0       0      25        0.0%
BITSFR25             0      0       0      26        0.0%
SFR25                0      0       0      26        0.0%
BITSFR26             0      0       0      27        0.0%
SFR26                0      0       0      27        0.0%
BITSFR27             0      0       0      28        0.0%
SFR27                0      0       0      28        0.0%
BITSFR28             0      0       0      29        0.0%
SFR28                0      0       0      29        0.0%
BITSFR29             0      0       0      30        0.0%
SFR29                0      0       0      30        0.0%
BITSFR30             0      0       0      31        0.0%
SFR30                0      0       0      31        0.0%
BITSFR31             0      0       0      32        0.0%
SFR31                0      0       0      32        0.0%


Microchip Technology PIC Macro Assembler V2.20 build 20200408173844 
Symbol Table                                                                                   Fri Dec 04 18:53:48 2020

                     l34 07AC                       l39 07F8                       u10 07B0  
                     u11 07AF                       u30 07E0                       u31 07DF  
                     u40 07F8                       u41 07F7                       u25 07D3  
                     u57 07B4                       u67 07BE                       u77 07C6  
                     u87 07CC                       u97 07E4                      l651 078A  
                    l661 0794                      l653 078C                      l671 07BB  
                    l663 0796                      l655 078E                      l681 07D2  
                    l673 07BD                      l665 0798                      l657 0790  
                    l649 0788                      l691 07E9                      l683 07D9  
                    l675 07C2                      l667 079F                      l659 0792  
                    l693 07F1                      l677 07C9                      l669 07B0  
                    l685 07DB                      l687 07E0                      l679 07CB  
                    l695 07F3                      l689 07E7                      u107 07EC  
                    _pos 0074                      _rpt 0075                      wreg 0009  
                   _LATA 010C                     _WPUA 020C                     _main 0788  
                   btemp 007E                     start 0001                    ?_main 0076  
                  _TRISA 008C                    status 0003                    wtemp0 007E  
        __initialization 07F9             __end_of_main 07F9                   ??_main 0076  
                 _ANSELA 018C                   _ODCONA 028C                   _INLVLA 038C  
__end_of__initialization 07FE           __pcstackCOMMON 0076               __pnvCOMMON 0075  
             __pmaintext 0788                  _OSCCON1 0919                  _OSCCON3 091B  
                _SLRCONA 030C                  _pattern 0070     end_of_initialization 07FE  
    start_initialization 07F9              __pbssCOMMON 0070                ___latbits 0000  
          __size_of_main 0071  
